{
  "contractName": "TokenERC20",
  "abi": [
    {
      "constant": true,
      "inputs": [],
      "name": "totalSupply",
      "outputs": [
        {
          "name": "",
          "type": "uint256"
        }
      ],
      "payable": false,
      "stateMutability": "view",
      "type": "function"
    },
    {
      "anonymous": false,
      "inputs": [
        {
          "indexed": true,
          "name": "_from",
          "type": "address"
        },
        {
          "indexed": true,
          "name": "_to",
          "type": "address"
        },
        {
          "indexed": false,
          "name": "_value",
          "type": "uint256"
        }
      ],
      "name": "Transfer",
      "type": "event"
    },
    {
      "anonymous": false,
      "inputs": [
        {
          "indexed": true,
          "name": "_owner",
          "type": "address"
        },
        {
          "indexed": true,
          "name": "_spender",
          "type": "address"
        },
        {
          "indexed": false,
          "name": "_value",
          "type": "uint256"
        }
      ],
      "name": "Approval",
      "type": "event"
    },
    {
      "constant": false,
      "inputs": [
        {
          "name": "_to",
          "type": "address"
        },
        {
          "name": "_value",
          "type": "uint256"
        }
      ],
      "name": "transfer",
      "outputs": [
        {
          "name": "success",
          "type": "bool"
        }
      ],
      "payable": false,
      "stateMutability": "nonpayable",
      "type": "function"
    },
    {
      "constant": false,
      "inputs": [
        {
          "name": "_from",
          "type": "address"
        },
        {
          "name": "_to",
          "type": "address"
        },
        {
          "name": "_value",
          "type": "uint256"
        }
      ],
      "name": "transferFrom",
      "outputs": [
        {
          "name": "success",
          "type": "bool"
        }
      ],
      "payable": false,
      "stateMutability": "nonpayable",
      "type": "function"
    },
    {
      "constant": true,
      "inputs": [
        {
          "name": "_owner",
          "type": "address"
        }
      ],
      "name": "balanceOf",
      "outputs": [
        {
          "name": "balance",
          "type": "uint256"
        }
      ],
      "payable": false,
      "stateMutability": "view",
      "type": "function"
    },
    {
      "constant": false,
      "inputs": [
        {
          "name": "_spender",
          "type": "address"
        },
        {
          "name": "_value",
          "type": "uint256"
        }
      ],
      "name": "approve",
      "outputs": [
        {
          "name": "success",
          "type": "bool"
        }
      ],
      "payable": false,
      "stateMutability": "nonpayable",
      "type": "function"
    },
    {
      "constant": true,
      "inputs": [
        {
          "name": "_owner",
          "type": "address"
        },
        {
          "name": "_spender",
          "type": "address"
        }
      ],
      "name": "allowance",
      "outputs": [
        {
          "name": "remaining",
          "type": "uint256"
        }
      ],
      "payable": false,
      "stateMutability": "view",
      "type": "function"
    },
    {
      "constant": false,
      "inputs": [
        {
          "name": "_spender",
          "type": "address"
        },
        {
          "name": "_value",
          "type": "uint256"
        },
        {
          "name": "_extraData",
          "type": "bytes"
        }
      ],
      "name": "approveAndCall",
      "outputs": [
        {
          "name": "success",
          "type": "bool"
        }
      ],
      "payable": false,
      "stateMutability": "nonpayable",
      "type": "function"
    }
  ],
  "bytecode": "0x608060405234801561001057600080fd5b506106cc806100206000396000f3006080604052600436106100825763ffffffff7c0100000000000000000000000000000000000000000000000000000000600035041663095ea7b3811461008757806318160ddd146100cc57806323b872dd146100f357806370a082311461012a578063a9059cbb14610158578063cae9ca5114610189578063dd62ed3e146101ff575b600080fd5b34801561009357600080fd5b506100b873ffffffffffffffffffffffffffffffffffffffff60043516602435610233565b604080519115158252519081900360200190f35b3480156100d857600080fd5b506100e16102a6565b60408051918252519081900360200190f35b3480156100ff57600080fd5b506100b873ffffffffffffffffffffffffffffffffffffffff600435811690602435166044356102ac565b34801561013657600080fd5b506100e173ffffffffffffffffffffffffffffffffffffffff600435166103be565b34801561016457600080fd5b506100b873ffffffffffffffffffffffffffffffffffffffff600435166024356103e6565b34801561019557600080fd5b50604080516020600460443581810135601f81018490048402850184019095528484526100b894823573ffffffffffffffffffffffffffffffffffffffff169460248035953695946064949201919081908401838280828437509497506103fc9650505050505050565b34801561020b57600080fd5b506100e173ffffffffffffffffffffffffffffffffffffffff60043581169060243516610522565b33600081815260016020908152604080832073ffffffffffffffffffffffffffffffffffffffff8716808552908352818420869055815186815291519394909390927f8c5be1e5ebec7d5bd14f71427d1e84f3dd0314c0f7b2291e5b200ac8c7c3b925928290030190a350600192915050565b60025481565b73ffffffffffffffffffffffffffffffffffffffff83166000908152602081905260408120548211801590610311575073ffffffffffffffffffffffffffffffffffffffff841660009081526001602090815260408083203384529091529020548211155b801561031d5750600082115b156103b35773ffffffffffffffffffffffffffffffffffffffff80841660008181526020818152604080832080548801905593881680835284832080548890039055600182528483203384528252918490208054879003905583518681529351929391927fddf252ad1be2c89b69c2b068fc378daa952ba7f163c4a11628f55a4df523b3ef9281900390910190a35060016103b7565b5060005b9392505050565b73ffffffffffffffffffffffffffffffffffffffff1660009081526020819052604090205490565b60006103f333848461055a565b50600192915050565b6000836104098185610233565b1561051a576040517f8f4ffcb1000000000000000000000000000000000000000000000000000000008152336004820181815260248301879052306044840181905260806064850190815287516084860152875173ffffffffffffffffffffffffffffffffffffffff871695638f4ffcb195948b94938b939192909160a490910190602085019080838360005b838110156104ae578181015183820152602001610496565b50505050905090810190601f1680156104db5780820380516001836020036101000a031916815260200191505b5095505050505050600060405180830381600087803b1580156104fd57600080fd5b505af1158015610511573d6000803e3d6000fd5b50505050600191505b509392505050565b73ffffffffffffffffffffffffffffffffffffffff918216600090815260016020908152604080832093909416825291909152205490565b600073ffffffffffffffffffffffffffffffffffffffff8316151561057e57600080fd5b73ffffffffffffffffffffffffffffffffffffffff84166000908152602081905260409020548211156105b057600080fd5b73ffffffffffffffffffffffffffffffffffffffff8316600090815260208190526040902054828101116105e357600080fd5b5073ffffffffffffffffffffffffffffffffffffffff808316600081815260208181526040808320805495891680855282852080548981039091559486905281548801909155815187815291519390950194927fddf252ad1be2c89b69c2b068fc378daa952ba7f163c4a11628f55a4df523b3ef929181900390910190a373ffffffffffffffffffffffffffffffffffffffff80841660009081526020819052604080822054928716825290205401811461069a57fe5b505050505600a165627a7a723058200d1876337bdaf307973e01224a8b479d81841f17779ae84459ae3684c4944fb70029",
  "source": "pragma solidity ^0.4.4;\n\ninterface TokenRecipient { \n    function receiveApproval(address _from, uint256 _value, address _token, bytes calldata) external; \n}\n\ncontract TokenERC20 {\n\n    mapping (address => uint256) balances;\n    mapping (address => mapping (address => uint256)) allowed;\n    uint256 public totalSupply;\n    \n    event Transfer(address indexed _from, address indexed _to, uint256 _value);\n    event Approval(address indexed _owner, address indexed _spender, uint256 _value);\n\n    function _transfer(address _from, address _to, uint _value) internal {\n        require(_to != address(0x0));\n        require(balances[_from] >= _value);\n        require(balances[_to] + _value > balances[_to]);\n\n        uint previousBalances = balances[_from] + balances[_to];\n        balances[_from] -= _value;\n        balances[_to] += _value;\n        emit Transfer(_from, _to, _value);\n        assert(balances[_from] + balances[_to] == previousBalances);\n    }\n\n    function transfer(address _to, uint256 _value) public returns (bool success) {\n        _transfer(msg.sender, _to, _value);\n        return true;\n    }\n\n    function transferFrom(address _from, address _to, uint256 _value) public returns (bool success) {\n        if (balances[_from] >= _value && allowed[_from][msg.sender] >= _value && _value > 0) {\n            balances[_to] += _value;\n            balances[_from] -= _value;\n            allowed[_from][msg.sender] -= _value;\n            emit Transfer(_from, _to, _value);\n            return true;\n        } else { return false; }\n    }\n\n    function balanceOf(address _owner) public view returns (uint256 balance) {\n        return balances[_owner];\n    }\n\n    function approve(address _spender, uint256 _value) public returns (bool success) {\n        allowed[msg.sender][_spender] = _value;\n        emit Approval(msg.sender, _spender, _value);\n        return true;\n    }\n\n    function allowance(address _owner, address _spender) public constant returns (uint256 remaining) {\n        return allowed[_owner][_spender];\n    }\n    \n    function approveAndCall(address _spender, uint256 _value, bytes memory _extraData) public\n    returns (bool success) {\n        TokenRecipient spender = TokenRecipient(_spender);\n        if (approve(_spender, _value)) {\n            spender.receiveApproval(msg.sender, _value, address(this), _extraData);\n            return true;\n        }\n    }\n}\n\ncontract MaxTokenV1 is TokenERC20 {\n\n    string public name;\n    uint8 public decimals;\n    string public symbol;\n    uint256 public unitsOneEthCanBuy;\n    uint256 public totalEthInWei;\n    address public fundsWallet;\n\n    constructor() public {\n        balances[msg.sender] = 1000000000000000000000;\n        totalSupply = 1000000000000000000000;               // Update total supply (1000 for example) (CHANGE THIS)\n        name = \"MaxToken\";                                  // Set the name for display purposes (CHANGE THIS)\n        decimals = 18;                                      // Amount of decimals for display purposes (CHANGE THIS)\n        symbol = \"MTC\";                                     // Set the symbol for display purposes (CHANGE THIS)\n        unitsOneEthCanBuy = 10;                             // Set the price of your token for the ICO (CHANGE THIS)\n        fundsWallet = msg.sender;                           // The owner of the contract gets ETH\n    }\n    \n    function buy() public payable {\n        totalEthInWei = totalEthInWei + msg.value;\n        uint256 amount = msg.value * unitsOneEthCanBuy;\n        require(balances[fundsWallet] >= amount);\n\n        balances[fundsWallet] = balances[fundsWallet] - amount;\n        balances[msg.sender] = balances[msg.sender] + amount;\n    \n        fundsWallet.transfer(msg.value);\n        emit Transfer(fundsWallet, msg.sender, amount);\n    }\n}",
  "sourcePath": "/Users/jedsada/Documents/development/crowdsale-ico-playground/contracts/MaxTokenV1.sol",
  "compiler": {
    "name": "solc",
    "version": "0.4.24+commit.e67f0147.Emscripten.clang"
  },
  "schemaVersion": "2.0.1",
  "updatedAt": "2018-12-03T03:54:47.574Z"
}